:020000040800F2
:1000000070330120E9020008F1020008F302000841
:10001000F5020008F7020008F902000800000000DD
:10002000000000000000000000000000290200089D
:10003000FD02000800000000850200080D0600080F
:100040000303000803030008030300080303000878
:100050000303000803030008030300080303000868
:100060000303000803030008030300080303000858
:100070000303000803030008030300080303000848
:100080000303000803030008030300080303000838
:100090000303000803030008030300080303000828
:1000A0000303000803030008030300080303000818
:1000B0000303000803030008030300080303000808
:1000C00003030008030300080303000803030008F8
:1000D00003030008030300080303000803030008E8
:1000E00003030008030300080303000803030008D8
:1000F00003030008030300080303000803030008C8
:1001000003030008030300080303000803030008B7
:1001100003030008030300080303000803030008A7
:100120000303000803030008030300080303000897
:100130000303000803030008030300080303000887
:100140000303000803030008030300080303000877
:100150000303000803030008030300080303000867
:100160000303000803030008030300080303000857
:100170000303000803030008030300080000000055
:10018000030300080303000800F002F800F03CF845
:100190000AA090E8000C82448344AAF10107DA45E2
:1001A00001D100F031F8AFF2090EBAE80F0013F0F8
:1001B000010F18BFFB1A43F0010318479C0D000004
:1001C000BC0D0000103A24BF78C878C1FAD8520795
:1001D00024BF30C830C144BF04680C6070470000C1
:1001E0000023002400250026103A28BF78C1FBD840
:1001F000520728BF30C148BF0B6070471FB500F0E1
:10020000A5FE1FBD10B510BD00F091F81146FFF717
:10021000F5FF00F049FA00F0AFF803B4FFF7F2FF82
:1002200003BC00F0B7F800002C4B19680868B0E870
:10023000F04F80F30988BFF36F8F4FF0000080F319
:10024000118870470000000008480068006880F3CB
:1002500008884FF0000080F3148862B661B6BFF3DF
:100260004F8FBFF36F8F00DF00BF00BF08ED00E0CE
:10027000DFF80C00016841F470010160704700BFB5
:1002800088ED00E0EFF30980BFF36F8F134B1A681E
:100290001EF0100F08BF20ED108A20E9F04F10600B
:1002A00009B44FF0BF0080F31188BFF34F8FBFF345
:1002B0006F8F00F0BBFC4FF0000080F3118809BC89
:1002C00019680868B0E8F04F1EF0100F08BFB0ECD6
:1002D000108A80F30988BFF36F8F70470C000020ED
:1002E000EFF3058070470000094880470948004740
:1002F000FEE7FEE7FEE7FEE7FEE7FEE7FEE7FEE7D6
:10030000FEE7FEE704480549054A064B7047000032
:100310004106000889010008702D0120703301207A
:10032000702F0120702F012070477047704775466D
:1003300000F02CF8AE4605006946534620F0070051
:10034000854618B020B5FFF7DDFFBDE820404FF02F
:1003500000064FF000074FF000084FF0000B21F0AF
:100360000701AC46ACE8C009ACE8C009ACE8C0097C
:10037000ACE8C0098D46704710B50446AFF3008065
:100380002046BDE81040FFF748BF00000048704716
:10039000102D012001491820ABBEFEE72600020007
:1003A000704700002048006840F008001E490860BF
:1003B0000846006840F0010008601C48006820F012
:1003C00040401A4908600846006840F080400860D4
:1003D0000846006820F0405008600846006840F079
:1003E000805008600846006820F0406008600846B9
:1003F000006840F0806008600846006820F04070A7
:1004000008600846006840F08070086000200749D6
:1004100008310860091F08600548C06820F0030023
:100420000349C8607047000030380240000C0240A9
:10043000000002404FF4804001490860704700000E
:10044000140C02403448006840F48030324908609F
:1004500000BF3148006800F400300028F9D040F2B5
:100460000F702E4908602C48083000682A4908316E
:1004700008600846006840F4A0500860084600681C
:1004800040F4004008600846006820F480000860DE
:100490000846006820F03F0008600846006847F6FC
:1004A000C07188431C49083108600846006820F480
:1004B000403008600846006840F480000860084644
:1004C000006840F0100008600846006840F42850BA
:1004D00008601148006840F080700F49086000BF54
:1004E0000D48006800F000700028F9D00A48083074
:1004F000006820F0030008490831086008460068D9
:1005000040F00200086000BF03480830006800F0B7
:100510000C000828F8D1704700380240003C024027
:100520000CB50020019000903448006840F4803001
:100530003249086000BF3148006800F40030009084
:100540000198401C0190009818B90198B0F5A06F6F
:10055000F1D12A48006800F4003010B10120009069
:1005600001E0002000900098012846D12348403047
:10057000006840F080502149403108602048006800
:1005800040F440401E4908601C48083000681B4980
:10059000083108600846006840F4004008600846DA
:1005A000006840F4A05008601648091F0860081F42
:1005B000006840F08070091F086000BF0F480068A5
:1005C00000F000700028F9D040F205700E49086074
:1005D0000A480830006820F0030008490831086024
:1005E0000846006840F00200086000BF0348083079
:1005F000006800F00C000828F8D10CBD003802405B
:100600000070004019544007003C024010B500BF84
:10061000BF2080F31188BFF34F8FBFF36F8F00BFF0
:1006200000F094FB18B14FF080500449086000BFFF
:10063000002080F3118800BF10BD000004ED00E031
:1006400010B51548006840F470001349086013485D
:10065000006840F001001149086000200F4908318E
:1006600008600E4800680E4908400C4908600D48B3
:10067000091D0860081F006820F48020091F086019
:10068000002006490C310860FFF74AFF4FF0006078
:1006900001498039086010BD88ED00E00038024053
:1006A000FFFFF6FE103000241CB5FFF7CBFEFFF76E
:1006B00079FE0020012103462022CDE9001005A18A
:1006C000054800F013FB00F077FA01E0FFF7B2FEF7
:1006D000FCE70000425554004D0B00082DE9F041A5
:1006E00005460E461648076816480068001D00F0CB
:1006F000B5F9681C38B936B112480168091D1248AD
:1007000000F0EAF91AE07C190E4800684460BC4227
:1007100007D20C480168091D0C48006800F0C2F9B6
:100720000CE008480168091D0948006800F0BAF9A2
:1007300008480068844201D206480460BDE8F081A0
:10074000200000200C000020FC2C012014000020C0
:10075000100000203C00002010B5044600F0C8F94D
:1007600022480068401C214908602148006840B9BF
:100770001F4804600846006801280DD100F0C6F843
:100780000AE01C48006838B919480068C06AE16A84
:10079000884201D81648046017480068401C164972
:1007A00008601649E06A0968884202D91349E06A7C
:1007B0000860E16A01EB8101114A02EB8100211D11
:1007C00000F08AF900F0A6F90A48006868B1084804
:1007D0000068C06AE16A884207D24FF08050094938
:1007E0000860BFF34F8FBFF36F8F10BD1C00002058
:1007F0000C000020280000203800002024000020E9
:10080000482C012004ED00E010B516E000F070F96E
:100810000C48C068C468201D00F020F90A48006830
:10082000401E0949086009480068401E07490860E1
:1008300000F070F9204600F00BF80448006800282A
:10084000E4D110BDE82C01201C000020180000207D
:1008500010B50446206B00F06DF9204600F06AF9EF
:1008600010BD000000BFFFF7CFFF06480068012859
:10087000F9D94FF0805004490860BFF34F8FBFF3A0
:100880006F8FF0E7482C012004ED00E02DE9FF5FB9
:1008900080460E469146DDE90E7A109CA9F10100D2
:1008A000216B01EB800B2BF0070B002507E0715D3E
:1008B00004F134004155705D00B902E06D1C102D4B
:1008C000F5D300BF002143200155052F00D3042795
:1008D000E762201D00F0E3F804F1180000F0DFF8F3
:1008E0002461C7F10500A06164620020606484F89F
:1008F000480041465846039A00F09AF82060BAF141
:10090000000F01D0CAF80040BDE8FF9F10B50024D9
:1009100007E004EB84010F4A02EB810000F0B2F81B
:10092000641C052CF5D30C4800F0ACF80B4800F023
:10093000A9F80B4800F0A6F80A4800F0A3F80A4806
:1009400000F0A0F804480949086004480849086014
:1009500010BD0000482C0120AC2C0120C02C01202F
:10096000D42C0120E82C0120FC2C012010000020B8
:10097000140000200A490968096809B9012100E04A
:10098000002121B14FF0FF31064A116006E0044911
:100990000968C968C868034A416811607047000067
:1009A000100000203C00002000BFBF2080F3118811
:1009B000BFF34F8FBFF36F8F00BF00BFFEE7000094
:1009C00070B50446002504F0070020B104F00700CC
:1009D000C0F10800044400F021F91148006820B972
:1009E000104820F007000E4908600F4800682044B6
:1009F0000E49884210D20C48006820440A49096810
:100A0000884209D906480068074909684518064818
:100A1000006820440449086000F024FA284670BDAC
:100A2000040000205000002000000020F82B0100EE
:100A3000001F4FF080730360001F21F0010303606B
:100A4000001F054B036014380260001F6FF00203A3
:100A50000360203870470000A909000801460A69B0
:100A6000D1E901309860D1E90103586050688842AB
:100A700001D188685060002008611068401E106035
:100A80001068704700F1080141604FF0FF3181604C
:100A900000F10801C160016100210160704700217F
:100AA0000161704710B502460B685C1C0CB91069F7
:100AB00007E002F1080000E04068446824689C42B6
:100AC000FAD944684C604C68A160886041600A6152
:100AD0001468641C146010BD42684A6093688B609F
:100AE000936859609160086103685B1C03607047FC
:100AF00000BFBF2080F31188BFF34F8FBFF36F8F0C
:100B000000BF03480068401C0149086070470000AE
:100B10000800002006480068401E05490860084695
:100B2000006820B9002080F3118800BF00BF704723
:100B300008000020704700204FF0E0210861886124
:100B400041F63F70486107200861704715E00B4887
:100B5000006900F0010068B1642000F013F8084853
:100B6000006880F40040064908600846006880F488
:100B700000500860C82000F005F8E8E700000240D7
:100B8000140C024070B50446002544B100F046F84C
:100B900000212046FFF7A2FD00F064F905463DB9AB
:100BA0004FF0805003490860BFF34F8FBFF36F8F42
:100BB00070BD000004ED00E01CB5114800210B469B
:100BC0002022CDE900100FA1104800F08FF8044654
:100BD000012C14D100BFBF2080F31188BFF34F8FC9
:100BE000BFF36F8F00BF4FF0FF300949086001204D
:100BF0000849086000200849086000F053F81CBD4F
:100C00004000002049444C450000000065080008F1
:100C10003C0000202800002020000020024800683E
:100C2000401C0149086070474400002018480068D3
:100C300018B101201749086028E000201549086014
:100C40001548016800E0491E01EB8100134A52F883
:100C5000200008B9012000E000200028F3D101EBBA
:100C600081020E4B03EB820042685268426000F141
:100C700008024368934202D1426852684260426867
:100C8000D268074B1A600448016000BF704700003B
:100C9000440000203000002024000020482C0120C7
:100CA0000C00002010B50E48006840F47F000C498D
:100CB00008600846006840F07F400860FFF73BFF8F
:100CC000002008490860FFF7D3FA0748006840F0A1
:100CD000404005490860FFF7B7FA002010BD00004A
:100CE00020ED00E00800002034EF00E02DE9FF4F88
:100CF00085B0804689461746DDE912ABB800FFF79C
:100D00005FFE064656B14C20FFF75AFE04460CB172
:100D1000266304E03046FFF70DFF00E000247CB1BD
:100D20000020CDE900ABCDE902403A4649464046B5
:100D3000089BFFF7ABFD2046FFF70EFD012501E004
:100D40004FF0FF35284609B0BDE8F08F2DE9F0419E
:100D5000002739480068002862D138480068451CDF
:100D6000364805608DB93648D0F8008035480068AF
:100D7000334908603348C0F8008033480068401C9D
:100D800031490860FFF7F6FD00BF30480068854232
:100D90003AD300BF2A480068006808B9012000E083
:100DA000002020B14FF0FF30284908602BE0244894
:100DB0000068C068C4686668B54202D2234806600D
:100DC00021E0201DFFF74AFEA06A18B104F11800C7
:100DD000FFF744FE1E49E06A0968884202D91C49AF
:100DE000E06A0860E16A01EB81011A4A02EB8100C6
:100DF000211DFFF771FE1849E06A0968C96A884237
:100E0000C8D30127C6E700BF13480068C06A00EBDB
:100E10008000104951F82000012800D9012704E082
:100E20000E480068401C0D4908600D48006800B17C
:100E300001273846BDE8F081440000202000002052
:100E40001000002014000020340000203C0000208E
:100E500024000020482C01200C0000202C00002041
:100E60003000002070B500240026FFF741FE2E4818
:100E70000068401E2C4908600846006800284ED1D2
:100E80002A48006800284AD023E02948C068C4687E
:100E900004F11800FFF7E2FD201DFFF7DFFD2549F3
:100EA000E06A0968884202D92249E06A0860E16A7A
:100EB00001EB8101204A02EB8100211DFFF70CFEAE
:100EC0001E49E06A0968C96A884202D301201C49A8
:100ED00008601748006808B9012000E000200028D9
:100EE000D3D00CB1FFF746FD1648056865B100BFC9
:100EF000FFF72CFF10B10120114908606D1E002D75
:100F0000F6D100200F4908600D48006838B101266D
:100F100030070D490860BFF34F8FBFF36F8FFFF7A6
:100F2000F9FD304670BD0000440000201C00002088
:100F3000D42C012024000020482C01200C0000208B
:100F4000300000202C00002004ED00E04FF0407045
:100F5000E1EE100A70470000780F00080000002042
:100F600048000000C4010008C00F0008480000202D
:100F700028330100E001000800000000000000002C
:100F8000AAAAAAAA000000000000000000000000B9
:100F90000000000000000000000000000000000051
:100FA0000000000000000000000000000000000041
:100FB0000000000000000000000000000000000031
:04000005080002E904
:00000001FF
