:020000040800F2
:1000000078330120E9020008F1020008F302000839
:10001000F5020008F7020008F902000800000000DD
:10002000000000000000000000000000290200089D
:10003000FD0200080000000085020008CD0700084E
:100040000303000803030008030300080303000878
:100050000303000803030008030300080303000868
:100060000303000803030008030300080303000858
:100070000303000803030008030300080303000848
:100080000303000803030008030300080303000838
:100090000303000803030008030300080303000828
:1000A0000303000803030008030300080303000818
:1000B0000303000803030008030300080303000808
:1000C00003030008030300080303000803030008F8
:1000D000030300080303000869080008030300087D
:1000E00003030008030300080303000803030008D8
:1000F00003030008030300080303000803030008C8
:1001000003030008030300080303000803030008B7
:1001100003030008030300080303000803030008A7
:100120000303000803030008030300080303000897
:100130000303000803030008030300080303000887
:100140000303000803030008030300080303000877
:100150000303000803030008030300080303000867
:100160000303000803030008030300080303000857
:100170000303000803030008030300080000000055
:10018000030300080303000800F002F800F03CF845
:100190000AA090E8000C82448344AAF10107DA45E2
:1001A00001D100F031F8AFF2090EBAE80F0013F0F8
:1001B000010F18BFFB1A43F001031847481600004F
:1001C00068160000103A24BF78C878C1FAD85207E0
:1001D00024BF30C830C144BF04680C6070470000C1
:1001E0000023002400250026103A28BF78C1FBD840
:1001F000520728BF30C148BF0B6070471FB501F0E0
:10020000FBFA1FBD10B510BD00F008F91146FFF74D
:10021000F5FF00F067FB00F026F903B4FFF7F2FFEB
:1002200003BC00F02DF900002C4B19680868B0E8F9
:10023000F04F80F30988BFF36F8F4FF0000080F319
:10024000118870470000000008480068006880F3CB
:1002500008884FF0000080F3148862B661B6BFF3DF
:100260004F8FBFF36F8F00DF00BF00BF08ED00E0CE
:10027000DFF80C00016841F470010160704700BFB5
:1002800088ED00E0EFF30980BFF36F8F134B1A681E
:100290001EF0100F08BF20ED108A20E9F04F10600B
:1002A00009B44FF0BF0080F31188BFF34F8FBFF345
:1002B0006F8F00F023FF4FF0000080F3118809BC1E
:1002C00019680868B0E8F04F1EF0100F08BFB0ECD6
:1002D000108A80F30988BFF36F8F704710000020E9
:1002E000EFF3058070470000094880470948004740
:1002F000FEE7FEE7FEE7FEE7FEE7FEE7FEE7FEE7D6
:10030000FEE7FEE704480549054A064B7047000032
:100310000108000889010008782D012078330120A8
:10032000782F0120782F0120032A40F2308010F02E
:10033000030C00F0158011F8013BBCF1020F624480
:1003400098BF11F801CB00F8013B38BF11F8013B11
:10035000A2F1040298BF00F801CB38BF00F8013BBE
:1003600011F0030300F02880083AC0F0088051F82B
:10037000043B083A51F804CBA0E80810F5E7121D39
:100380005CBF51F8043B40F8043BAFF30080D20758
:1003900024BF11F8013B11F801CB48BF11F8012B24
:1003A00024BF00F8013B00F801CB48BF00F8012B47
:1003B000704770477047704710B5203AC0F00B8007
:1003C000B1E81850203AA0E81850B1E81850A0E859
:1003D0001850BFF4F5AF5FEA027C24BFB1E81850B3
:1003E000A0E8185044BF18C918C0BDE810405FEA23
:1003F000827C24BF51F8043B40F8043B08BF70479F
:10040000D20728BF31F8023B48BF11F8012B28BFA3
:1004100020F8023B48BF00F8012B7047754600F0FA
:100420002BF8AE4605006946534620F00700854686
:1004300018B020B5FFF766FFBDE820404FF000067A
:100440004FF000074FF000084FF0000B21F00701BC
:10045000AC46ACE8C009ACE8C009ACE8C009ACE8FF
:10046000C0098D46704710B50446AFF300802046A2
:10047000BDE81040FFF7D1BE00487047142D0120A1
:1004800001491820ABBEFEE72600020070470000BD
:100490000948006840F009000749086007480068FB
:1004A00040F0AA40054908600548C06820F00300F4
:1004B0000349C8607047000030380240000C024019
:1004C000000002402048006840F480301E49086067
:1004D00000BF1D48006800F400300028F9D01B4818
:1004E000006840F20F710843184908601648083048
:1004F000006840F414401449083108600846006858
:10050000134908431049083108600F48006840F05B
:1005100080700D49086000BF0B48006800F0007053
:100520000028F9D008480830006840F00200064969
:100530000831086000BF04480830006800F00C0073
:100540000828F8D17047000000380240003C024003
:10055000085440001E48006840F001001C49086033
:100560001B481030006840F0010019491031086044
:100570001848006840F00400164908600846806882
:1005800040F00C0088604803008D40F029004903CA
:1005900008854FF47A70C862401048630007008BEA
:1005A00040F4C04008830846008C40F010000884E6
:1005B0000846008C20F0200008840846008820F0BF
:1005C000100008800846008840F00100088070474D
:1005D000303802400000024010B52248006822492D
:1005E0000843204908602148006840F0A0001F49E6
:1005F00008600846806840F0F00088600846C068DF
:1006000040F05000C8600846006A40F4EE400862BE
:1006100041F2171016490880081D008842F22C018B
:1006200008431349091D0880262000F01F020121FC
:1006300091404209920002F1E022C2F8001100BF8D
:100640000421002807DA0A07140E0A4A00F00F03F3
:100650001B1FD45403E00A07130E074A135400BFAC
:1006600010BD0000403802400100020000000240BE
:100670000844004018ED00E000E400E04FF4804042
:100680000149086070470000140C024000BF054992
:10069000098801F040010029F9D00249091D0880AC
:1006A000704700000044004010B50246002305E0FA
:1006B00019465C1CE3B2505C00F004F8D05C0028E2
:1006C000F6D110BD00BF0549098801F0400100299D
:1006D000F9D00249091D088070470000004400401D
:1006E0000CB50020019000903448006840F4803040
:1006F0003249086000BF3148006800F400300090C3
:100700000198401C0190009818B90198B0F5A06FAD
:10071000F1D12A48006800F4003010B101200090A7
:1007200001E0002000900098012846D12348403085
:10073000006840F08050214940310860204800683E
:1007400040F440401E4908601C48083000681B49BE
:10075000083108600846006840F400400860084618
:10076000006840F4A05008601648091F0860081F80
:10077000006840F08070091F086000BF0F480068E3
:1007800000F000700028F9D040F205700E490860B2
:100790000A480830006820F0030008490831086062
:1007A0000846006840F00200086000BF03480830B7
:1007B000006800F00C000828F8D10CBD0038024099
:1007C0000070004008544007003C024010B500BFD4
:1007D000BF2080F31188BFF34F8FBFF36F8F00BF2F
:1007E00000F0CAFE18B14FF080500449086000BF05
:1007F000002080F3118800BF10BD000004ED00E070
:1008000010B51548006840F470001349086013489B
:10081000006840F001001149086000200F490831CC
:1008200008600E4800680E4908400C4908600D48F1
:10083000091D0860081F006820F48020091F086057
:10084000002006490C310860FFF74AFF4FF00060B6
:1008500001498039086010BD88ED00E00038024091
:10086000FFFFF6FE1030002410B51848008800F095
:10087000200050B31548008820F02000134908805C
:10088000081D008830280DD1FFF71CFF0A20FFF754
:1008900019FF0FA0FFF708FF0F48006820F4004081
:1008A0000D4908600948001D008831280DD1FFF767
:1008B00009FF0A20FFF706FF08A0FFF7F5FE06482C
:1008C000006840F400400449086010BD0044004046
:1008D0004F46460D0A000000140C02404F4E0D0A10
:1008E000000000001CB5FFF7EDFDFFF7D1FDFFF79D
:1008F00073FEFFF72FFE0020012103462022CDE9E1
:10090000001012A1134800F007FE00200121034649
:100910002022CDE9001010A1104800F0FDFD0020BC
:10092000012103462022CDE900100DA10E4800F060
:10093000F3FD00220121052000F056FC0B49086060
:1009400000F0A2FB01E0FFF799FEFCE74C454431C3
:10095000000000001910000842555400690F0008FB
:100960005465737400000000751100080000002039
:100970002DE9F04105460E461648076816480068FE
:10098000001D00F06DFA681C38B936B112480168D4
:10099000091D124800F0ABFA1AE07C190E480068F5
:1009A0004460BC4207D20C480168091D0C4800682D
:1009B00000F083FA0CE008480168091D0948006846
:1009C00000F07BFA08480068844201D206480460BF
:1009D000BDE8F0812400002010000020002D01203F
:1009E00018000020140000204000002010B504462C
:1009F00000F08AFA22480068401C2149086021481A
:100A0000006840B91F4804600846006801280DD1FD
:100A100000F024F90AE01C48006838B91948006859
:100A2000C06AE16A884201D8164804601748006825
:100A3000401C164908601649E06A0968884202D9D4
:100A40001349E06A0860E16A01EB8101114A02EB97
:100A50008100211D00F04BFA00F068FA0A48006896
:100A600068B108480068C06AE16A884207D24FF05E
:100A7000805009490860BFF34F8FBFF36F8F10BDDF
:100A800020000020100000202C0000203C0000204E
:100A9000280000204C2C012004ED00E010B516E0E9
:100AA00000F032FA0C48C068C468201D00F0D8F984
:100AB0000A480068401E0949086009480068401E4D
:100AC0000749086000F032FA204600F055F8044863
:100AD00000680028E4D110BDEC2C0120200000208B
:100AE0001C00002070B504460D46206C70B1216CCE
:100AF000E0680844E0606168E068884201D32068EB
:100B0000E0602846226CE168FFF70EFC70BD2DE91D
:100B1000F04104460F4615464FF00008A66B206CC6
:100B200028B37DB93946226CA068FFF7FDFB216C24
:100B3000A0680844A060D4E90110884217D3206857
:100B4000A06014E03946226CE068FFF7EDFB216CF1
:100B5000E068401AE0602168E068884203D2216CB6
:100B60006068401AE060022D01D106B1761E701C4B
:100B7000A0634046BDE8F08110B50446206B00F04C
:100B8000E5F9204600F0E2F910BD000000BFFFF7D4
:100B900085FF064800680128F9D94FF080500449C4
:100BA0000860BFF34F8FBFF36F8FF0E74C2C01202D
:100BB00004ED00E02DE9F04106460D461746984643
:100BC000069C0DB9246000E02760E66325640121DE
:100BD000204600F025FBBDE8F0812DE9FF5F80464F
:100BE0000E469146DDE90E7A109CA9F10100216BB9
:100BF00001EB800B2BF0070B002507E0715D04F182
:100C000034004155705D00B902E06D1C102DF5D324
:100C100000BF002143200155052F00D30427E762C0
:100C2000201D00F047F904F1180000F043F9246199
:100C3000C7F10500A06164620020606484F8480088
:100C400041465846039A00F0F5F82060BAF1000FCB
:100C500001D0CAF80040BDE8FF9F000010B5002495
:100C600007E004EB84010F4A02EB810000F015F964
:100C7000641C052CF5D30C4800F00FF90B4800F06C
:100C80000CF90B4800F009F90A4800F006F90A4887
:100C900000F003F90448094908600448084908605D
:100CA00010BD00004C2C0120B02C0120C42C0120D0
:100CB000D82C0120EC2C0120002D01201400002054
:100CC0001800002070B5054600F01EF9A86B08B9A1
:100CD000012400E0002400F029F9204670BD70B521
:100CE000054600F011F9A86BE96B884201D1012497
:100CF00000E0002400F01AF9204670BD0A49096896
:100D0000096809B9012100E0002121B14FF0FF314C
:100D1000064A116006E004490968C968C868034AC0
:100D2000416811607047000014000020400000205E
:100D300000BFBF2080F31188BFF34F8FBFF36F8FC9
:100D400000BF00BFFEE770B5044600F0DDF894F97F
:100D5000455010E0606A08B9012000E0002038B971
:100D600004F1240000F094FC18B100F077F900E0E1
:100D700003E0681E45B2002DECDC00BFFF2084F8C4
:100D8000450000F0D3F800F0BFF894F9445010E0AB
:100D9000206908B9012000E0002048B904F11000E2
:100DA00000F076FC08B100F059F9681E45B200E089
:100DB00001E0002DECDC00BFFF2084F8440000F0CF
:100DC000B5F870BD70B50446002504F0070020B1E9
:100DD00004F00700C0F10800044400F087F911484E
:100DE000006820B9104820F007000E4908600F483D
:100DF000006820440E49884210D20C480068204404
:100E00000A490968884209D90648006807490968FB
:100E100045180648006820440449086000F078FC42
:100E2000284670BD08000020540000200400002067
:100E3000F82B0100001F4FF080730360001F21F0AA
:100E400001030360001F054B036014380260001F9C
:100E50006FF002030360203870470000310D000876
:100E600001460A69D1E901309860D1E9010358606F
:100E70005068884201D1886850600020086110687D
:100E8000401E10601068704770B5044600F03CF8D2
:100E9000A56B00F04BF8284670BD00F108014160D9
:100EA0004FF0FF31816000F10801C1600161002154
:100EB0000160704700210161704710B502460B6860
:100EC0005C1C0CB9106907E002F1080000E0406802
:100ED000446824689C42FAD944684C604C68A1601C
:100EE000886041600A611468641C146010BD426827
:100EF0004A6093688B6093685960916008610368E9
:100F00005B1C03607047000000BFBF2080F31188A6
:100F1000BFF34F8FBFF36F8F00BF03480068401CC3
:100F200001490860704700000C0000200648006876
:100F3000401E054908600846006820B9002080F37B
:100F4000118800BF00BF70470C00002070470000F0
:100F500000204FF0E02108618861024848610720C5
:100F6000086170473F90020008B524E0002000901F
:100F700005E0642000F02AF80FA0FFF795FB114868
:100F8000006900F001000028F3D1642000F01EF891
:100F90000D480068FFF778FF28B1002269460A482B
:100FA000006800F009FA9DF80000FFF76FFB64206D
:100FB00000F00CF800BFD9E7427574746F6E0D0A2B
:100FC00000000000000002400000002070B5044650
:100FD000002544B100F08AF800212046FFF7C8FC44
:100FE00000F096FB05463DB94FF08050034908607C
:100FF000BFF34F8FBFF36F8F70BD000004ED00E0B3
:1010000003490968016003490968416070470000AD
:1010100038000020240000201DE00F48006840F444
:1010200080500D4908600846006820F400500860B0
:101030004FF47A70FFF7CAFF0748006840F4005089
:10104000054908600846006820F4805008604FF4A5
:101050007A70FFF7BBFFE0E7140C02400120014962
:10106000086070473400002070B505460C460548FE
:10107000016818312846FFF720FF01212046FFF7BD
:1010800077FC70BD100000201CB5114800210B46F4
:101090002022CDE900100FA1104800F03DFA0446CF
:1010A000012C14D100BFBF2080F31188BFF34F8FF4
:1010B000BFF36F8F00BF4FF0FF3009490860012078
:1010C0000849086000200849086000F069F81CBD64
:1010D0004400002049444C45000000008D0B0008EE
:1010E000400000202C00002024000020024800685E
:1010F000401C0149086070474800002018480068FB
:1011000018B101201749086028E00020154908603F
:101110001548016800E0491E01EB8100134A52F8AE
:10112000200008B9012000E000200028F3D101EBE5
:1011300081020E4B03EB820042685268426000F16C
:1011400008024368934202D1426852684260426892
:10115000D268074B1A600448016000BF7047000066
:101160004800002034000020280000204C2C0120E2
:101170001000002008B51E2000900EE000231A4643
:1011800069460648006800F08BF89DF80000401C96
:10119000C0B20090C820FFF719FFEFE70000002061
:1011A00010B50E48006840F47F000C4908600846FE
:1011B000006840F07F400860FFF7CAFE0020084941
:1011C0000860FFF755F80748006840F040400549BF
:1011D0000860FFF739F8002010BD000020ED00E0A6
:1011E0000C00002034EF00E02DE9F84307460D46DF
:1011F00090460DB9002601E007FB05F606F1480010
:10120000FFF7E0FD044644B104F1480943464A466D
:10121000294638460094FFF7CDFC2046BDE8F88308
:1012200070B505460E462C46FFF76EFED4E90F1248
:10123000206801FB020060600020A0632068A060BD
:10124000E06B401E226C216800FB0210E060FF2072
:1012500084F8440084F845009EB9206908B901204B
:1012600000E00020A8B904F1100000F011FA80B1EC
:101270004FF0805009490860BFF34F8FBFF36F8F65
:1012800007E004F11000FFF708FE04F12400FFF767
:1012900004FEFFF74BFE012070BD000004ED00E0EE
:1012A0002DE9FF4383B0074688461D464FF00009ED
:1012B0003C4600BFFFF728FEA06BE16B884201D3DC
:1012C000022D28D12A4641462046FFF720FC06463B
:1012D000606A08B9012000E0002068B904F1240028
:1012E00000F0D6F988B14FF0805032490860BFF362
:1012F0004F8FBFF36F8F08E03EB14FF080502D4904
:101300000860BFF34F8FBFF36F8FFFF70FFE012011
:1013100007B0BDE8F083059818B9FFF707FE002075
:10132000F6E7B9F1000F04D101A8FFF769FE4FF00D
:101330000109FFF7FBFDFFF7D9FEFFF7E5FD94F983
:101340004400401C10B9002084F8440094F9450082
:10135000401C10B9002084F84500FFF7E7FD05A9FF
:1013600001A800F0ABF8F0B92046FFF7B8FCA0B137
:1013700004F110000599FFF777FE2046FFF7E3FC24
:1013800000F0C6F9002895D14FF080500949086057
:10139000BFF34F8FBFF36F8F8CE72046FFF7D3FC6F
:1013A00000F0B6F986E72046FFF7CDFC00F0B0F973
:1013B0000020ADE704ED00E02DE9F74183B00546DC
:1013C0000F464FF000082C4600BFFFF79DFDA66BAF
:1013D000F6B139462046FFF785FB701EA0632069F1
:1013E00008B9012000E0002060B904F1100000F00D
:1013F0004FF938B14FF080502F490860BFF34F8F3D
:10140000BFF36F8FFFF792FD012006B0BDE8F081BA
:10141000059818B9FFF78AFD0020F6E7B8F1000F2C
:1014200004D101A8FFF7ECFD4FF00108FFF77EFDA6
:10143000FFF75CFEFFF768FD94F94400401C10B90B
:10144000002084F8440094F94500401C10B90020A5
:1014500084F84500FFF76AFD05A901A800F02EF801
:10146000F0B92046FFF72EFCA0B104F12400059945
:10147000FFF7FAFD2046FFF766FC00F049F9002867
:10148000A3D14FF080500C490860BFF34F8FBFF3DA
:101490006F8F9AE72046FFF756FC00F039F994E782
:1014A0002046FFF750FC00F033F92046FFF70AFC16
:1014B00000288AD00020A8E704ED00E070B50646B9
:1014C0000C46FFF721FD124802687068131A206865
:1014D000401C08B9002517E00E49306809688842A9
:1014E00004D07068904201D801250DE02068984230
:1014F00007D92068C01A20603046FFF781FD00251B
:1015000002E0002020600125FFF710FD284670BD95
:1015100024000020380000202DE9FF4F85B08046D0
:1015200089461746DDE912ABB800FFF74BFC0646CB
:1015300056B14C20FFF746FC04460CB1266304E08C
:101540003046FFF703FD00E000247CB10020CDE928
:1015500000ABCDE902403A4649464046089BFFF7BA
:101560003CFB2046FFF742FA012501E04FF0FF3532
:10157000284609B0BDE8F08F2DE9F0410027394831
:101580000068002862D138480068451C364805606C
:101590008DB93648D0F80080354800683349086076
:1015A0003348C0F8008033480068401C3149086067
:1015B000FFF7A4FB00BF3048006885423AD300BF64
:1015C0002A480068006808B9012000E0002020B126
:1015D0004FF0FF30284908602BE024480068C068BD
:1015E000C4686668B54202D22348066021E0201D27
:1015F000FFF736FCA06A18B104F11800FFF730FCC1
:101600001E49E06A0968884202D91C49E06A0860FC
:10161000E16A01EB81011A4A02EB8100211DFFF70B
:1016200066FC1849E06A0968C96A8842C8D301277C
:10163000C6E700BF13480068C06A00EB800010498D
:1016400051F82000012800D9012704E00E48006865
:10165000401C0D4908600D48006800B1012738465C
:10166000BDE8F08148000020240000201400002084
:101670001800002038000020400000202800002032
:101680004C2C0120100000203000002034000020ED
:1016900070B50646F068C46804F11800FFF7E0FB77
:1016A00015480068A0B9201DFFF7DAFB1349E06A6E
:1016B0000968884202D91149E06A0860E16A01EBD1
:1016C00081010F4A02EB8100211DFFF710FC04E0AD
:1016D00004F118010B48FFF70AFC0B49E06A09689E
:1016E000C96A884204D9012501200849086000E040
:1016F0000025284670BD000048000020280000207A
:101700004C2C0120D82C0120100000203400002097
:1017100070B500240026FFF7F7FB2E480068401E36
:101720002C4908600846006800284ED12A48006805
:1017300000284AD023E02948C068C46804F1180092
:10174000FFF78EFB201DFFF78BFB2549E06A096838
:10175000884202D92249E06A0860E16A01EB81010E
:10176000204A02EB8100211DFFF7C1FB1E49E06A00
:101770000968C96A884202D301201C4908601748D9
:10178000006808B9012000E000200028D3D00CB187
:10179000FFF7B4FA1648056865B100BFFFF7ECFE25
:1017A00010B10120114908606D1E002DF6D10020F6
:1017B0000F4908600D48006838B1012630070D490F
:1017C0000860BFF34F8FBFF36F8FFFF7AFFB30465B
:1017D00070BD00004800002020000020D82C01200F
:1017E000280000204C2C0120100000203400002094
:1017F0003000002004ED00E04FF04070E1EE100AF0
:101800007047000024180008000000204C00000071
:10181000C4010008701800084C0000202C3301009F
:10182000E0010008000000000000000000000000CF
:10183000AAAAAAAA00000000000000000000000000
:101840000000000000000000000000000000000098
:101850000000000000000000000000000000000088
:101860000000000000000000000000000000000078
:04000005080002E904
:00000001FF
